{
  "_format": "hh-sol-artifact-1",
  "contractName": "TaskContract",
  "sourceName": "contracts/TaskContract.sol",
  "abi": [
    {
      "anonymous": false,
      "inputs": [
        {
          "indexed": false,
          "internalType": "address",
          "name": "receiver",
          "type": "address"
        },
        {
          "indexed": false,
          "internalType": "uint256",
          "name": "taskID",
          "type": "uint256"
        }
      ],
      "name": "AddTask",
      "type": "event"
    },
    {
      "anonymous": false,
      "inputs": [
        {
          "indexed": false,
          "internalType": "uint256",
          "name": "taskID",
          "type": "uint256"
        },
        {
          "indexed": false,
          "internalType": "bool",
          "name": "isRemoved",
          "type": "bool"
        }
      ],
      "name": "RemoveTask",
      "type": "event"
    },
    {
      "inputs": [
        {
          "internalType": "string",
          "name": "taskName",
          "type": "string"
        },
        {
          "internalType": "bool",
          "name": "isRemoved",
          "type": "bool"
        }
      ],
      "name": "addTask",
      "outputs": [],
      "stateMutability": "nonpayable",
      "type": "function"
    },
    {
      "inputs": [],
      "name": "getTask",
      "outputs": [
        {
          "components": [
            {
              "internalType": "uint256",
              "name": "id",
              "type": "uint256"
            },
            {
              "internalType": "string",
              "name": "taskName",
              "type": "string"
            },
            {
              "internalType": "bool",
              "name": "isRemoved",
              "type": "bool"
            }
          ],
          "internalType": "struct TaskContract.Task[]",
          "name": "",
          "type": "tuple[]"
        }
      ],
      "stateMutability": "view",
      "type": "function"
    },
    {
      "inputs": [
        {
          "internalType": "uint256",
          "name": "taskID",
          "type": "uint256"
        },
        {
          "internalType": "bool",
          "name": "isRemoved",
          "type": "bool"
        }
      ],
      "name": "removeTask",
      "outputs": [],
      "stateMutability": "nonpayable",
      "type": "function"
    }
  ],
  "bytecode": "0x608060405234801561001057600080fd5b50610c91806100206000396000f3fe608060405234801561001057600080fd5b50600436106100415760003560e01c806320df458114610046578063a31662d214610062578063ea25222e14610080575b600080fd5b610060600480360381019061005b91906107f6565b61009c565b005b61006a6101c6565b6040516100779190610a14565b60405180910390f35b61009a60048036038101906100959190610a62565b6104bc565b005b60008080549050905060006040518060600160405280838152602001858152602001841515815250908060018154018082558091505060019003906000526020600020906003020160009091909190915060008201518160000155602082015181600101908051906020019061011392919061059e565b5060408201518160020160006101000a81548160ff0219169083151502179055505050336001600083815260200190815260200160002060006101000a81548173ffffffffffffffffffffffffffffffffffffffff021916908373ffffffffffffffffffffffffffffffffffffffff1602179055507f1f54e1ba1832d428fbd7e7792beaf62b1fc5a382c207ffd614209c1413e94fda33826040516101b9929190610af2565b60405180910390a1505050565b60606000808054905067ffffffffffffffff8111156101e8576101e7610693565b5b60405190808252806020026020018201604052801561022157816020015b61020e610624565b8152602001906001900390816102065790505b5090506000805b600080549050811015610402573373ffffffffffffffffffffffffffffffffffffffff166001600083815260200190815260200160002060009054906101000a900473ffffffffffffffffffffffffffffffffffffffff1673ffffffffffffffffffffffffffffffffffffffff161480156102d9575060001515600082815481106102b6576102b5610b1b565b5b906000526020600020906003020160020160009054906101000a900460ff161515145b156103ef57600081815481106102f2576102f1610b1b565b5b90600052602060002090600302016040518060600160405290816000820154815260200160018201805461032590610b79565b80601f016020809104026020016040519081016040528092919081815260200182805461035190610b79565b801561039e5780601f106103735761010080835404028352916020019161039e565b820191906000526020600020905b81548152906001019060200180831161038157829003601f168201915b505050505081526020016002820160009054906101000a900460ff1615151515815250508383815181106103d5576103d4610b1b565b5b602002602001018190525081806103eb90610bda565b9250505b80806103fa90610bda565b915050610228565b5060008167ffffffffffffffff81111561041f5761041e610693565b5b60405190808252806020026020018201604052801561045857816020015b610445610624565b81526020019060019003908161043d5790505b50905060005b828110156104b25783818151811061047957610478610b1b565b5b602002602001015182828151811061049457610493610b1b565b5b602002602001018190525080806104aa90610bda565b91505061045e565b5080935050505090565b3373ffffffffffffffffffffffffffffffffffffffff166001600084815260200190815260200160002060009054906101000a900473ffffffffffffffffffffffffffffffffffffffff1673ffffffffffffffffffffffffffffffffffffffff16141561059a57806000838154811061053857610537610b1b565b5b906000526020600020906003020160020160006101000a81548160ff0219169083151502179055507f157cb0533cad35d3ac1fbf029c30153ad0666c38b245dd946ed0899e7bbf86ef8282604051610591929190610c32565b60405180910390a15b5050565b8280546105aa90610b79565b90600052602060002090601f0160209004810192826105cc5760008555610613565b82601f106105e557805160ff1916838001178555610613565b82800160010185558215610613579182015b828111156106125782518255916020019190600101906105f7565b5b5090506106209190610647565b5090565b604051806060016040528060008152602001606081526020016000151581525090565b5b80821115610660576000816000905550600101610648565b5090565b6000604051905090565b600080fd5b600080fd5b600080fd5b600080fd5b6000601f19601f8301169050919050565b7f4e487b7100000000000000000000000000000000000000000000000000000000600052604160045260246000fd5b6106cb82610682565b810181811067ffffffffffffffff821117156106ea576106e9610693565b5b80604052505050565b60006106fd610664565b905061070982826106c2565b919050565b600067ffffffffffffffff82111561072957610728610693565b5b61073282610682565b9050602081019050919050565b82818337600083830152505050565b600061076161075c8461070e565b6106f3565b90508281526020810184848401111561077d5761077c61067d565b5b61078884828561073f565b509392505050565b600082601f8301126107a5576107a4610678565b5b81356107b584826020860161074e565b91505092915050565b60008115159050919050565b6107d3816107be565b81146107de57600080fd5b50565b6000813590506107f0816107ca565b92915050565b6000806040838503121561080d5761080c61066e565b5b600083013567ffffffffffffffff81111561082b5761082a610673565b5b61083785828601610790565b9250506020610848858286016107e1565b9150509250929050565b600081519050919050565b600082825260208201905092915050565b6000819050602082019050919050565b6000819050919050565b6108918161087e565b82525050565b600081519050919050565b600082825260208201905092915050565b60005b838110156108d15780820151818401526020810190506108b6565b838111156108e0576000848401525b50505050565b60006108f182610897565b6108fb81856108a2565b935061090b8185602086016108b3565b61091481610682565b840191505092915050565b610928816107be565b82525050565b60006060830160008301516109466000860182610888565b506020830151848203602086015261095e82826108e6565b9150506040830151610973604086018261091f565b508091505092915050565b600061098a838361092e565b905092915050565b6000602082019050919050565b60006109aa82610852565b6109b4818561085d565b9350836020820285016109c68561086e565b8060005b85811015610a0257848403895281516109e3858261097e565b94506109ee83610992565b925060208a019950506001810190506109ca565b50829750879550505050505092915050565b60006020820190508181036000830152610a2e818461099f565b905092915050565b610a3f8161087e565b8114610a4a57600080fd5b50565b600081359050610a5c81610a36565b92915050565b60008060408385031215610a7957610a7861066e565b5b6000610a8785828601610a4d565b9250506020610a98858286016107e1565b9150509250929050565b600073ffffffffffffffffffffffffffffffffffffffff82169050919050565b6000610acd82610aa2565b9050919050565b610add81610ac2565b82525050565b610aec8161087e565b82525050565b6000604082019050610b076000830185610ad4565b610b146020830184610ae3565b9392505050565b7f4e487b7100000000000000000000000000000000000000000000000000000000600052603260045260246000fd5b7f4e487b7100000000000000000000000000000000000000000000000000000000600052602260045260246000fd5b60006002820490506001821680610b9157607f821691505b60208210811415610ba557610ba4610b4a565b5b50919050565b7f4e487b7100000000000000000000000000000000000000000000000000000000600052601160045260246000fd5b6000610be58261087e565b91507fffffffffffffffffffffffffffffffffffffffffffffffffffffffffffffffff821415610c1857610c17610bab565b5b600182019050919050565b610c2c816107be565b82525050565b6000604082019050610c476000830185610ae3565b610c546020830184610c23565b939250505056fea26469706673582212204ea3ac7e265f4422a153e04112cf924ec60406f9a119a7bd8162360eb174a83164736f6c63430008090033",
  "linkReferences": {},
  "deployedLinkReferences": {}
}